:020000040000FA
:020000000328D3
:040002000034003492
:0A00060007309F000313831600303B
:100010008600831206144A2006100F200A280A3090
:1000200000000000B000633000000000000000008D
:1000300000000000000000000000000000000000C0
:1000400000000000000000000000000000000000B0
:1000500000000000000000000000000000000000A0
:100060000000000000000000000000000000000090
:100070000000000000000000000000000000000080
:10008000B100D730B200B20B4328B10B4128B00BFE
:10009000132808000A300000000000000000B00033
:1000A00065300000000000000000000000000000BB
:1000B0000000000000000000000000000000000040
:1000C0000000000000000000000000000000000030
:1000D0000000000000000000000000000000000020
:1000E0000000000000000000000000000000000010
:1000F000000000000000B10074300000B200B20B3C
:0C0100007F28B10B7C28B00B50280800B1
:02400E00193F58
:00000001FF
